:020000040800F2
:10000000B0060020C1010008BF100008471000081A
:10001000BD100008B70300084D12000800000000E2
:100020000000000000000000000000004511000872
:10003000B903000800000000C110000847110008C3
:10004000DB010008DB010008DB010008DB01000820
:10005000DB010008DB010008DB010008DB01000810
:10006000DB010008DB010008DB010008DB01000800
:10007000DB010008DB010008DB010008DB010008F0
:10008000DB010008DB010008DB010008DB010008E0
:10009000DB010008DB010008DB010008DB010008D0
:1000A000DB010008DB010008DB010008BD110008CE
:1000B000DB010008DB010008DB010008DB010008B0
:1000C000DB010008DB010008DB010008DB010008A0
:1000D000DB010008DB010008DB010008DB01000890
:1000E000DB010008DB010008DB010008DB01000880
:1000F000DB01000800000000DB010008DB01000854
:10010000DB010008DB010008DB010008DB0100085F
:10011000DB010008DB010008DB0100080000000033
:10012000DB01000800F002F800F03AF80AA090E8BD
:10013000000C82448344AAF10107DA4501D100F0A2
:100140002FF8AFF2090EBAE80F0013F0010F18BF35
:10015000FB1A43F00103184794110000B41100008A
:10016000103A24BF78C878C1FAD8520724BF30C8E3
:1001700030C144BF04680C607047000000230024B5
:1001800000250026103A28BF78C1FBD8520728BFA7
:1001900030C148BF0B6070471FB51FBD10B510BD03
:1001A00000F0CFF81146FFF7F7FF01F061F800F01B
:1001B000EDF803B4FFF7F2FF03BC00F0F5F8000020
:1001C0000948804709480047FEE7FEE7FEE7FEE7EB
:1001D000FEE7FEE7FEE7FEE7FEE7FEE70448054927
:1001E000054A064B70470000B911000825010008B8
:1001F000B0000020B0060020B0020020B0020020B5
:1002000053EA020C00F069802DE9F04B4FF0000634
:10021000002B1FBFB3FA83F503FA05F424FA05F6A1
:100220005E4012BF1643B2FA82F502FA05F4C5F138
:1002300020051EBF22FA05FC44EA0C04203556EACC
:10024000044C4FEA144418BF641C4FF000084FF0F0
:100250000009904271EB030C39D3002919BFB1FAA0
:1002600081F701FA07F6B0FA80F700FA07F6C7F14E
:1002700020071EBF20FA07FC46EA0C062037B6FB13
:10028000F4FCA7EB0507103F07F01F0BCBF120068E
:100290000CFA0BFB2CFA06F644BFB3460026202FBF
:1002A000A4BF5E464FF0000B5BEA060C08BF4FF0A0
:1002B000010B19EB0B09ABFB027C48EB0608C01BDA
:1002C00006FB02CC0BFB03CC71EB0C01C1E70B4628
:1002D000024641464846BDE8F08B13B54FF000009A
:1002E0004FF00001AFF30080BDE81C4070474FF0B5
:1002F000000200B5134694469646203922BFA0E876
:100300000C50A0E80C50B1F12001BFF4F7AF090781
:1003100028BFA0E80C5048BF0CC05DF804EB890072
:1003200028BF40F8042B08BF704748BF20F8022BB5
:1003300011F0804F18BF00F8012B704770477047CD
:100340007047754600F02CF8AE46050069465346E6
:1003500020F00700854618B020B5FFF73FFFBDE845
:1003600020404FF000064FF000074FF000084FF01C
:10037000000B21F00701AC46ACE8C009ACE8C009AD
:10038000ACE8C009ACE8C0098D46704710B504461A
:10039000AFF300802046BDE81040FFF70ABF000021
:1003A000004870475000002001491820ABBEFEE70E
:1003B000260002007047FEE77047000070B5044653
:1003C00000F04CF90546601C02D004484068044423
:1003D00000F044F9401BA042FAD370BD0000002099
:1003E0002DE9F04FDFF82892002309F1040A0126D5
:1003F00003240AF1040B85B00F270BF1040EFEE075
:1004000006FA03F51CEA05027ED091F804C00CF050
:10041000030CBCF1010F02D0BCF1020F26D1D0F8C1
:1004200008C0CDF800C04FEA430C04FA0CF8CDF830
:1004300010C0DDF800C02CEA080CCDF800C0D1F8DF
:100440000C80DDF810C008FA0CF8DDF800C048EAAE
:100450000C08C0F80880D0F804C02CEA050C0D790F
:10046000C5F300159D4045EA0C0545600D79ED4347
:10047000AD070ED0C5684FEA430804FA08FC25EA28
:100480000C05D1F808C00CFA08FC4CEA050CC0F8C1
:100490000CC00D7905F00305022D15D1DD0800EB28
:1004A000850502952D6A4FEA437C4FEADC6807FA1E
:1004B00008FC25EA0C05D1F810C00CFA08FC4CEA3F
:1004C000050C029DC5F820C005684FEA430804FAF0
:1004D00008FC25EA0C0591F804C00CF0030C0CFA9A
:1004E00008FC4CEA050CC0F800C04D6815F4403F0C
:1004F0000AD0484DD5F800C04CF0010CC5F800C03A
:100500002D6805F0010500E078E00095424D23F0EC
:10051000030C65440295AD684FEA837C4FEA1C7872
:1005200007FA08FC25EA0C05DFF8F0C0604502D1A7
:100530004FF0000C2BE0DFF8E8C0604502D14FF02F
:10054000010C24E0DFF8DCC0604502D14FF0020C62
:100550001DE0DFF8D4C0604502D14FF0030C16E077
:10056000DFF8C8C0604502D14FF0040C0FE0DFF89F
:10057000C0C0604502D14FF0050C08E0DFF8B4C000
:10058000604502D14FF0060C01E04FF0070C0CFA69
:1005900008FC4CEA050C029DC5F808C0D9F80050CB
:1005A000CC46D1F8048095435FEAC83800D515439E
:1005B000CCF80050DAF80050D446D1F804809543C6
:1005C0005FEA883800D51543CCF80050DBF80050BE
:1005D000DC46D1F8048095435FEAC82800D515436E
:1005E000CCF80050DEF80050F446D1F80480954372
:1005F0005FEA882800D51543CCF800505B1C0A68D8
:100600009446DA407FF4FCAE05B0BDE8F08F000000
:100610000004014020380240000001400000024078
:100620000004024000080240000C0240001002409A
:1006300000140240001802400069084000D0012068
:100640007047426921EA02030A4043EA024181619C
:1006500070470AB1816170470904FBE7014880686F
:100660007047000000000020024881684268114481
:10067000816070470000002010B50024032000F0C6
:1006800095F8002000F008F808B1012401E000F01E
:100690003DF8204610BD000000B5014687B000229D
:1006A0001B2000F063F81B2000F052F8134801688B
:1006B00041F010010160006805A900F010000690EB
:1006C000684600F057F900F075F90D490D4AB0FB86
:1006D000F1F10D48491E0260416040F2E73200210D
:1006E000C0E90321816000F0BBFB10B1012007B01D
:1006F00000BD054800F0DAFBF9E7000020380240B1
:1007000040420F0000100140100000200F4882B04E
:10071000016841F000410160016801F00041009171
:10072000011F0A6842F001020A60096801F0010134
:100730000091016841F080510160006800F0805034
:100740000090072002B000F031B8000024380240C9
:10075000002809DB00F01F020121914040098000C0
:1007600000F1E020C0F8001170470000F0B40E4B1B
:100770001B680C46C3F30223C3F10705042D00D9FF
:100780000425191D072901D2002300E0DB1E0126E4
:1007900006FA05F1491E214099409E40761E1640FA
:1007A0003143F0BC00F053BD0CED00E0064900F011
:1007B000070208684FF6FF03184040EA0220034A88
:1007C00010430860704700000CED00E00000FA05DF
:1007D0002DE9F0470E46050079D0DFF88481D8F87E
:1007E000000000F00100B04214D2012E05D1D8F86B
:1007F000001041F00401C8F80010D8F8001021F0F2
:1008000001013143C8F80010D8F8000000F00100E1
:10081000B0425CD12878534C800705D52068A96880
:1008200020F0F000084320602878C0075CD04D49D4
:100830006868083902281AD003281BD009680128E3
:100840001BD08905002966DA216821F003010143E4
:100850002160FFF703FF6968074641F288300229EB
:1008600014D0032920D0012981462AD038E0096814
:100870008903E7E709688901E4E78907E2E700BF40
:10088000FFF7ECFEC11B494501D926E081462068EF
:10089000C0F381000228F3D126E000BFFFF7DEFE9F
:1008A000C11B494501D918E081462068C0F3810089
:1008B0000328F3D118E000BFFFF7D0FEC11B494564
:1008C0000BD82068C0F381000128F5D10CE022E0AC
:1008D000FFF7C4FEC11B494502D90320BDE8F087DC
:1008E000206810F00C0FF3D1D8F80010404601F04A
:1008F0000101B14211D9012E03D1016841F0040177
:100900000160016821F0010131430160006800F0DD
:100910000100B04201D00120E0E72878400705D56A
:100920002068E96820F4E060084320602878000728
:1009300006D52068296920F4605040EAC100206093
:1009400000F048F82168084AC1F30311515CC8401F
:100950000649086006480068BDE8F047FFF79CBEFE
:10096000003C024008380240D11200080C00002070
:10097000000000200F2202600C4A136803F00303FA
:100980004360136803F0F0038360136803F4E063CB
:10099000C36012684FF4E06303EAD20202610448C4
:1009A000006800F00100086070470000083802404D
:1009B000003C02400448054900680968044AC1F344
:1009C000C221515CC84070470C000020083802402A
:1009D000E112000870B5154D2968154801F00C02A8
:1009E000042A0CD04410082A0AD00C2A0AD0281F46
:1009F0000068C0F342314FF40040491C884070BD8C
:100A0000204670BD0B4AC1F38343D35CC1F38152CE
:100A10002968521CC90302D5A3FB040101E0A3FB12
:100A200000010023FFF7ECFB70BD00000838024016
:100A30000024F400C81200082DE9F84F04007DD00E
:100A4000FC480168006801F00C0700F4803620784B
:100A5000F94DC00741D0082F12D00C2F02D1B6F5A6
:100A6000803F0DD06068012811D008B1052818D04A
:100A7000286820F480302860286820F4802009E06D
:100A80002868800329D560680028D8D025E0286828
:100A900040F480302860606890B1FFF7DFFD804649
:100AA0000AE0286840F480202860F0E7FFF7D6FDD0
:100AB000A0EB080064287BD828688003F6D50CE0FA
:100AC000FFF7CCFD804605E0FFF7C8FDA0EB08006E
:100AD0006428F0D828688003F6D42078DFF85CB367
:100AE000DFF85C8380074FF001094FF0000A35D52D
:100AF000042F0AD00C2F00D13EB1E068F8B1C8F83D
:100B00000090FFF7ABFD06460BE0286880070BD589
:100B1000E068012812D107E0FFF7A0FD801B022842
:100B2000C9D828688007F7D5DBF80010226921F4BE
:100B3000F85141EA0221CBF800100FE077E1C8F844
:100B400000A0FFF78BFD064605E000BFFFF786FD1E
:100B5000801B0228AFD828688007F7D42078C00609
:100B600074D53FB1A069E0B3C8F82090FFF776FDD7
:100B700006464AE02868800502D5A069002884D08E
:100B8000206ADBF800105E4601F46041884210D90B
:100B900000F098FA0028BDD13068216A20F4604046
:100BA00008433060217F306861F31F6030600FE0E0
:100BB00096E0316821F4604101433160217F306863
:100BC00061F31F603060206A00F07CFA0028A1D138
:100BD000216A4FF4004009EB51318840954909687A
:100BE00000E025E0974AC1F30311515CC8409649E3
:100BF000086096480068FFF74FFD00286FD125E098
:100C0000FFF72CFD801B02286AD828688005F7D5DD
:100C1000DBF80010226A21F460411143CBF8001088
:100C2000227FDBF8001062F31F61CBF800100DE0AB
:100C3000C8F820A0FFF712FD064604E0FFF70EFDFE
:100C4000801B02284CD828688005F7D42078804E75
:100C5000000722D57F48616981B1C0F80090FFF795
:100C6000FDFC834606E000BFFFF7F8FCA0EB0B009D
:100C7000022835D830688007F6D50EE0C0F800A00D
:100C8000FFF7ECFC834605E0FFF7E8FCA0EB0B0068
:100C9000022825D830688007F6D4207840076DD523
:100CA0006B484FF0000B10380068C0000BD4684848
:100CB0001038016841F08051016000684FF0010B6D
:100CC00000F08050009064480168C90514D40168A0
:100CD00041F480710160FFF7C1FC009008E08DE0F5
:100CE00079E000BFFFF7BAFC0099401A642872D877
:100CF00059480068C005F5D5A06801280AD008B198
:100D0000052811D0306820F480703060306820F4FD
:100D1000806002E0306840F480703060A068A8B164
:100D2000FFF79CFC00900DE0306840F4806030607C
:100D3000F0E700BFFFF792FC0099411A41F28830BA
:100D400081425AD830688005F4D50EE0FFF786FC62
:100D5000009007E0FFF782FC0099411A41F28830C9
:100D600081424AD830688005F4D4BBF1000F05D029
:100D700037481038016821F080510160606A58B32B
:100D80000C2F41D00228504605D0C8F86000FFF76C
:100D900065FC044634E04746C8F86000FFF75EFC97
:100DA000064604E0FFF75AFC801B022825D8286875
:100DB0008001F7D4D4E90A1001431E48226B03686E
:100DC00023F47D031A4311430160C7F86090FFF7D5
:100DD00045FC044607E010E040E000BFFFF73EFCA2
:100DE000001B022809D828688001F7D536E000BF2B
:100DF000FFF734FC001B022802D90320BDE8F88F5E
:100E000028688001F4D429E00128F7D00948006857
:100E1000A26A00F48031914209D1E26A00F47011B3
:100E2000914204D1216B00F44000884216D0012089
:100E3000E4E700000838024000380240043802406D
:100E400000004742D11200080C00002000000020E2
:100E50003438024080064742007000400020CDE751
:100E600010B5040003D094F8390010B107E0012058
:100E700010BD002084F83800204600F016F802204B
:100E800084F83900211D206800F09EF9012084F8C3
:100E90003E0084F83A0084F83B0084F83C0084F873
:100EA0003D0084F83900002010BD704790F83910DB
:100EB000012901D001207047022180F83910016812
:100EC000CA6842F00102CA600068B0F1804F08D0E1
:100ED0000949884205D00949884202D00849884218
:100EE00004D1816801F00701062903D0016841F0AF
:100EF000010101600020704700040040000800402C
:100F000000080140704770B50446006801694FF061
:100F10000005C943890715D4C168C943890711D49D
:100F2000E91E016101202076206880698007204643
:100F300002D0FFF7E7FF04E000F078F8204600F069
:100F400076F8257620680169C943490717D4C16836
:100F5000C943490713D46FF00401016102202076D0
:100F60002068806910F4407F204602D0FFF7CAFF56
:100F700004E000F05BF8204600F059F82576206880
:100F80000169C943090716D4C168C943090712D4C6
:100F90006FF008010161042020762068C069800795
:100FA000204602D0FFF7AEFF04E000F03FF82046F5
:100FB00000F03DF8257620680169C943C90617D4B9
:100FC000C168C943C90613D46FF01001016108203C
:100FD00020762068C06910F4407F204602D0FFF7D9
:100FE00091FF04E000F022F8204600F020F825767A
:100FF00020680169C943C90708D1C168C943C90745
:1010000004D1891E0161204600F012F820680169B0
:10101000C943490609D4C168C943490605D46FF0DC
:1010200040010161204600F00DF870BD7047704727
:1010300000680349884201D1FFF716BB70470000E2
:10104000001001407047FEE730B587B014216846B4
:10105000FFF74DF91648016841F00401016001688D
:1010600001F004010591016841F00101016000688F
:10107000104D00F001000590002220212846FFF7C6
:10108000E8FA00244FF40050CDE9000469460A480C
:101090000294FFF7A5F9202000900120CDE901047A
:1010A000694628460394FFF79BF907B030BD00005E
:1010B0001C3802400000024000080240FEE7FEE744
:1010C0007047000038B51C49002309681B4A11F01D
:1010D000F00F23D118491C310C68E500184C03D5DA
:1010E000216801F4C0540EE00D6845F080550D6094
:1010F0000D6805F08055009524680D6804F4C0540F
:1011000025F080550D60B4F5C05F07D1B0F5404FB4
:1011100004D11068012340F004001060106820F032
:10112000010018431060106800F00100984201D0DF
:10113000012038BD002038BD08380240003C024084
:10114000007000407047704710B592B03421684677
:10115000FFF7CDF814210DA8FFF7C9F8154801686D
:1011600021F4C05141F4006101600121039102208A
:101170001021009000240491CDE9090480040B9013
:1011800000010C906846FFF757FC08B172B6FEE705
:101190000F200D900320CDE90E04109401210DA81D
:1011A0001194FFF715FB002801D072B6FEE712B0CC
:1011B00010BD000000700040704700000148FFF7BC
:1011C000A2BE000010000020F0B502684FF0804C75
:1011D000184B194C194D1A4E604507D0984205D04E
:1011E000A04203D0A84201D0B04205D122F070073E
:1011F0004A683A4360450DD098420BD0A04209D0CE
:10120000A84207D0B04205D00E4B984202D00E4BF8
:10121000984203D122F44073CA681A430B6922F042
:1012200080021A4302608A68C262096881620121F1
:101230004161F0BD0004004000080040000C004087
:1012400000080140000C014000100140FEE70907C2
:10125000090E002804DB00F1E02080F8001470473C
:1012600000F00F0000F1E02080F8141D704700002E
:10127000FFF702FAFFF768FFFFF7E6FE104F114D88
:101280004FF400564FF4FA7431463846FFF7D4F95C
:1012900001280ED020212846FFF7D3F92046FFF77A
:1012A0008DF820212846FFF7CCF92046FFF786F875
:1012B000EAE7002220212846FFF7CBF9E4E7000007
:1012C0000008024000000240030406080C10182029
:1012D00030000000000000000001020304060708BF
:1012E0000900000000010203040000000C130008C4
:1012F0000000002010000000600100081C1300081E
:1013000010000020A00600007C0100081000000072
:0C131000010000000000000068FF1F004A
:0400000508000125C9
:00000001FF
