:020000040800F2
:1000000000400120D11D0008990700089F07000843
:10001000A5070008AB070008B107000800000000B2
:10002000000000000000000000000000B70700080A
:10003000C307000800000000CF070008DB07000826
:10004000191E0008191E0008191E0008191E0008B4
:10005000191E0008191E0008191E0008191E0008A4
:10006000191E0008191E0008191E0008191E000894
:10007000191E0008191E0008191E0008191E000884
:10008000191E0008191E0008191E0008191E000874
:10009000191E0008191E0008191E0008E7070008AD
:1000A000191E0008191E0008191E00080108000882
:1000B000191E0008191E0008191E0008191E000844
:1000C000191E0008191E0008191E0008191E000834
:1000D000191E0008191E0008191E0008191E000824
:1000E00015080008191E0008191E0008191E00082E
:1000F000191E000800000000191E0008191E000843
:10010000191E0008191E0008191E0008191E0008F3
:10011000191E0008191E0008191E00080000000022
:10012000191E000800000000000000000000000090
:0C01300000000000000000005FF808F173
:10013C0010B5054C237833B9044B13B10448AFF315
:10014C0000800123237010BD0C0000200000000073
:10015C00741E000808B5034B1BB103490348AFF3E9
:10016C00008008BD0000000010000020741E000874
:10017C0053B94AB9002908BF00281CBF4FF0FF3102
:10018C004FF0FF3000F07AB9ADF1080C6DE904CEF8
:10019C0000F006F8DDF804E0DDE9022304B0704756
:1001AC002DE9F0478C460E460446089D002B50D195
:1001BC008A4217466CD9B2FA82FEBEF1000F0BD000
:1001CC00CEF1200C01FA0EF620FA0CFC02FA0EF716
:1001DC004CEA060C00FA0EF43A0CBCFBF2F9BBB27A
:1001EC0002FB19CC09FB03FA4FEA144848EA0C4607
:1001FC00B2450AD9F61909F1FF3180F02581B245D3
:10020C0040F22281A9F102093E44A6EB0A06B6FB94
:10021C00F2F002FB106600FB03F3A4B244EA0644BE
:10022C00A34209D9E41900F1FF3280F00B81A342FB
:10023C0040F2088102383C440021E41A40EA0940AB
:10024C00002D62D0002324FA0EF42C606B60BDE804
:10025C00F0878B4207D9002D55D0002185E841004D
:10026C000846BDE8F087B3FA83F1002940F08F808F
:10027C00B34202D3824200F2FC80841A66EB03067E
:10028C000120B446002D40D085E81010BDE8F08761
:10029C0012B90127B7FBF2F7B7FA87FEBEF1000FD0
:1002AC0035D10121F61B4FEA174C1FFA87F8B6FB24
:1002BC00FCF20CFB126608FB02F0230C43EA064628
:1002CC00B04207D9F61902F1FF3302D2B04200F264
:1002DC00D2801A46361AB6FBFCF00CFB106608FBF3
:1002EC0000F8A3B243EA0644A04507D9E41900F18B
:1002FC00FF3302D2A04500F2B9801846A4EB0804E3
:10030C0040EA02409CE729462846BDE8F08707FAF8
:10031C000EF7CEF1200326FA03F24FEA174CB2FB8C
:10032C00FCF11FFA87F80CFB112206FA0EF620FAE4
:10033C0003F301FB08F933431E0C46EA0246B145B0
:10034C0000FA0EF409D9F61901F1FF3280F08C8015
:10035C00B14540F2898002393E44A6EB0906B6FB52
:10036C00FCF00CFB106200FB08F99EB246EA024658
:10037C00B14507D9F61900F1FF3371D2B1456FD9E8
:10038C0002383E44A6EB090640EA01418FE7C1F171
:10039C00200722FA07F88B4048EA030326FA07F4F1
:1003AC004FEA134EB4FBFEF91FFA83FC0EFB194403
:1003BC008E4020FA07F809FB0CFA48EA06084FEAC7
:1003CC00184646EA0444A24502FA01F200FA01F684
:1003DC0008D9E41809F1FF3044D2A24542D9A9F159
:1003EC0002091C44A4EB0A04B4FBFEF00EFB1044FF
:1003FC0000FB0CFC1FFA88F848EA0444A44507D912
:10040C00E41800F1FF3E29D2A44527D902381C4438
:10041C0040EA0940A0FB0289A4EB0C0CCC45C24677
:10042C00CE4615D312D055B1B6EB0A036CEB0E06C3
:10043C0006FA07F7CB401F43CE402F606E600021B9
:10044C00BDE8F0871046F7E68946DEE64645EAD277
:10045C00B8EB020A69EB030E0138E4E77046D7E704
:10046C0018468FE78146BDE7114676E702383C44D3
:10047C0044E7084606E7023A3E442BE7704700BFC4
:10048C0080B588B000AF07F10C0300221A605A60E7
:10049C009A60DA601A612D4A2C4BDB6943F0040335
:1004AC00D3612A4BDB6903F00403BB60BB68274AAA
:1004BC00264BDB6943F00103D361244BDB6903F06A
:1004CC0001037B607B6800222021214800F04AFC5C
:1004DC004FF40053FB604FF404133B6100237B612A
:1004EC0007F10C0319461B4800F0AEFA2023FB6001
:1004FC0001233B6100237B610023BB6107F10C03EB
:10050C001946134800F0A0FA4FF44073FB604FF407
:10051C0004133B6100237B6107F10C0319460C4863
:10052C0000F092FA00220021172000F062FA172046
:10053C0000F07BFA00220021282000F05AFA282033
:10054C0000F073FA00BF2037BD4680BD0038024072
:10055C00000002400008024080B500AF00F062F9D4
:10056C0000F004F8FFF78CFFFEE7000080B592B0B6
:10057C0000AF07F1140334220021184601F06CFC83
:10058C003B4600221A605A609A60DA601A611D4A72
:10059C001C4B1B6823F4C05343F400631360022309
:1005AC007B6101233B6210237B620223BB6300232C
:1005BC00FB634FF400233B644FF400037B6407F1AF
:1005CC001403184600F018FC0346002B01D000F071
:1005DC0053F80F233B6003237B600023BB60002395
:1005EC00FB6000233B613B460121184600F034FFC1
:1005FC000346002B01D000F03FF800BF4837BD4642
:10060C0080BD00BF0070004080B582B000AF0346D3
:10061C00FB80FB88B3F5007F10D0B3F5005F03D0EF
:10062C00B3F5807F05D00EE02021094800F0B2FB25
:10063C0009E02021064800F0ADFB04E0202104482D
:10064C0000F0A8FB00BF00BF0837BD4680BD00BF4F
:10065C000000024080B582B000AF78607B681B68F8
:10066C00044A934201D100F0F5F800BF0837BD46AB
:10067C0080BD00BF0010014080B400AF72B6FEE731
:10068C0080B584B000AF154A144B5B6A43F000434D
:10069C005362124B5B6A03F00043FB60FB680F4A2A
:1006AC000E4B1B6A43F0010313620C4B1B6A03F0E5
:1006BC000103BB60BB68094A084B5B6A43F080537B
:1006CC005362064B5B6A03F080537B607B680720A8
:1006DC0000F084F900BF1037BD4680BD00380240E1
:1006EC0080B58CB000AF78600023FB620023BB6246
:1006FC00002279681B2000F07CF91B2000F095F992
:10070C001E4A1E4B1B6A43F0100313621B4B1B6AE1
:10071C0003F01003FB60FB6807F1100207F11403F0
:10072C001146184601F0B4F801F09EF8F862FB6A25
:10073C00134AA2FB03239B0C013BBB62114B124AD5
:10074C001A60104B40F2E732DA600E4ABB6A536013
:10075C000C4B00221A610B4B00229A60094801F0E5
:10076C0027F90346002B04D1064801F069F903462A
:10077C0000E0012318463037BD4680BD00380240EA
:10078C0083DE1B43280000200010014080B400AF22
:10079C00FEE780B400AFFEE780B400AFFEE780B4A4
:1007AC0000AFFEE780B400AFFEE780B400AF00BF3F
:1007BC00BD4680BC704780B400AF00BFBD4680BC56
:1007CC00704780B400AF00BFBD4680BC704780B49A
:1007DC0000AF00BFBD4680BC704780B500AF4FF482
:1007EC00807000F0F1FA4FF4007000F0EDFA00BFE9
:1007FC0080BD000080B500AF024801F073F900BF66
:10080C0080BD00BF2800002080B500AF4FF4005021
:10081C0000F0DAFA00BF80BD80B400AF00BFBD4667
:10082C0080BC704780B582B000AF0023FB71032001
:10083C0000F0D4F80020FFF753FF0346002B02D042
:10084C000123FB7101E0FFF71BFFFB79184608370A
:10085C00BD4680BD80B400AF054B1A68054B1B68C4
:10086C001344034A136000BFBD4680BC704700BFF1
:10087C00680000200800002080B400AF024B1B6809
:10088C001846BD4680BC70476800002080B485B017
:10089C0000AF78607B6803F00703FB600C4BDB68F0
:1008AC00BB60BA684FF6FF031340BB60FB681A02CB
:1008BC00BB68134343F0BF6343F40033BB60044A8B
:1008CC00BB68D36000BF1437BD4680BC704700BF07
:1008DC0000ED00E080B400AF044BDB681B0A03F0B2
:1008EC0007031846BD4680BC704700BF00ED00E012
:1008FC0080B483B000AF0346FB7197F90730002B2F
:10090C000BDB084997F907305B09FA7902F01F02F3
:10091C00012000FA02F241F8232000BF0C37BD463B
:10092C0080BC704700E100E080B483B000AF0346A8
:10093C003960FB7197F90730002B0ADB0D4997F9E9
:10094C0007303A68D2B21201D2B20B4483F80023BA
:10095C000AE00949FB7903F00F03043B3A68D2B271
:10096C001201D2B20B441A7600BF0C37BD4680BCC4
:10097C00704700BF00E100E000ED00E080B489B0FA
:10098C0000AFF860B9607A60FB6803F00703FB61A5
:10099C00FB69C3F10703042B28BF0423BB61FB696C
:1009AC000433062B02D9FB69033B00E000237B6177
:1009BC000122BB6902FA03F35A1EBB681A407B6919
:1009CC009A4001217B6901FA03F3591E7B680B40A5
:1009DC00134318462437BD4680BC704780B582B09F
:1009EC0000AF78607868FFF751FF00BF0837BD464D
:1009FC0080BD80B586B000AF0346B9607A60FB73EA
:100A0C0000237B61FFF766FF78617A68B9687869C3
:100A1C00FFF7B4FF024697F90F3011461846FFF75F
:100A2C0083FF00BF1837BD4680BD80B582B000AFD4
:100A3C000346FB7197F907301846FFF759FF00BFC3
:100A4C000837BD4680BD000080B487B000AF786029
:100A5C00396000237B610023FB6000233B6160E174
:100A6C003B681A6801217B6901FA03F31340FB60B0
:100A7C00FB68002B00F052813B685B6803F00303BA
:100A8C00012B05D03B685B6803F00303022B30D1CC
:100A9C007B689B683B617B695B00032202FA03F372
:100AAC00DB433A6913403B613B68DA687B695B0066
:100ABC0002FA03F33A6913433B617B683A699A6023
:100ACC007B685B683B6101227B6902FA03F3DB43C1
:100ADC003A6913403B613B685B681B0903F00102F8
:100AEC007B6902FA03F33A6913433B617B683A6909
:100AFC005A603B685B6803F00303032B17D07B68D9
:100B0C00DB683B617B695B00032202FA03F3DB4386
:100B1C003A6913403B613B689A687B695B0002FA57
:100B2C0003F33A6913433B617B683A69DA603B68CB
:100B3C005B6803F00303022B23D17B69DA087B6823
:100B4C00083253F822303B617B6903F007039B00AA
:100B5C000F2202FA03F3DB433A6913403B613B6813
:100B6C001A697B6903F007039B0002FA03F33A69E5
:100B7C0013433B617B69DA087B680832396943F8B7
:100B8C0022107B681B683B617B695B00032202FAC5
:100B9C0003F3DB433A6913403B613B685B6803F04A
:100BAC0003027B695B0002FA03F33A6913433B616E
:100BBC007B683A691A603B685B6803F44033002B2E
:100BCC0000F0AC805D4A5D4B1B6A43F0010313627D
:100BDC005A4B1B6A03F00103BB60BB68584A7B6924
:100BEC009B08023352F823303B617B6903F003030B
:100BFC009B000F2202FA03F3DB433A6913403B617B
:100C0C007B68504A934225D07B684F4A93421FD051
:100C1C007B684E4A934219D07B684D4A934213D05D
:100C2C007B684C4A93420DD07B684B4A934207D069
:100C3C007B684A4A934201D106230CE007230AE061
:100C4C00052308E0042306E0032304E0022302E06A
:100C5C00012300E000237A6902F003029200934022
:100C6C003A6913433B6136497B699B0802333A6905
:100C7C0041F823203A4B1B683B61FB68DB433A6924
:100C8C0013403B613B685B6803F48033002B03D05B
:100C9C003A69FB6813433B61314A3B691360304B43
:100CAC005B683B61FB68DB433A6913403B613B6823
:100CBC005B6803F40033002B03D03A69FB681343E1
:100CCC003B61274A3B695360254B9B683B61FB6842
:100CDC00DB433A6913403B613B685B6803F4801368
:100CEC00002B03D03A69FB6813433B611C4A3B69F8
:100CFC0093601B4BDB683B61FB68DB433A69134039
:100D0C003B613B685B6803F40013002B03D03A692A
:100D1C00FB6813433B61124A3B69D3607B69013327
:100D2C007B613B681A687B6922FA03F3002B7FF422
:100D3C0097AE00BF1C37BD4680BC704700380240E0
:100D4C000000014000000240000402400008024084
:100D5C00000C024000100240001402400018024037
:100D6C000004014080B483B000AF78600B467B80F8
:100D7C0013467B707B78002B03D07A887B689A6152
:100D8C0003E07B881A047B689A6100BF0C37BD4670
:100D9C0080BC704780B485B000AF78600B467B8018
:100DAC007B685B69FB607A88FB6813401A04FB68FC
:100DBC00D9437B880B401A437B689A6100BF143778
:100DCC00BD4680BC7047000080B582B000AF0346C2
:100DDC00FB80084B5A69FB881340002B06D0054A50
:100DEC00FB885361FB881846FFF70EFC00BF0837E1
:100DFC00BD4680BD0004014080B588B000AF78606E
:100E0C007B68002B01D101231DE3944B9B6803F0FD
:100E1C000C03BB61914B9B6803F480337B617B6853
:100E2C001B6803F00103002B7BD0BB69082B06D099
:100E3C00BB690C2B0FD17B69B3F5803F0BD1874B72
:100E4C001B6803F40033002B6AD07B685B68002BB3
:100E5C0066D10123F7E27B685B68012B06D17F4AE0
:100E6C007E4B1B6843F4803313602DE07B685B681A
:100E7C00002B0CD1794A794B1B6823F48033136017
:100E8C00764A764B1B6823F4802313601CE07B6846
:100E9C005B68052B0CD1714A704B1B6843F48023A3
:100EAC0013606E4A6D4B1B6843F4803313600BE088
:100EBC006A4A6A4B1B6823F480331360674A674B9A
:100ECC001B6823F4802313607B685B68002B13D0B2
:100EDC00FFF7D2FC386108E0FFF7CEFC02463B6915
:100EEC00D31A642B01D90323ADE25C4B1B6803F4CA
:100EFC000033002BF0D014E0FFF7BEFC386108E0A3
:100F0C00FFF7BAFC02463B69D31A642B01D90323C1
:100F1C0099E2524B1B6803F40033002BF0D100E034
:100F2C0000BF7B681B6803F00203002B5AD0BB691F
:100F3C00042B05D0BB690C2B19D17B69002B16D166
:100F4C00464B1B6803F00203002B05D07B68DB6863
:100F5C00012B01D0012376E24049404B5B6823F41E
:100F6C00F8527B681B691B0213434B603AE07B68A9
:100F7C00DB68002B20D03A4B01221A60FFF77CFC77
:100F8C00386108E0FFF778FC02463B69D31A022B64
:100F9C0001D9032357E2314B1B6803F00203002BEA
:100FAC00F0D02E492D4B5B6823F4F8527B681B69FB
:100FBC001B0213434B6015E0294B00221A60FFF70C
:100FCC005BFC386108E0FFF757FC02463B69D31A1B
:100FDC00022B01D9032336E2204B1B6803F00203DA
:100FEC00002BF0D17B681B6803F01003002B00F082
:100FFC00B880BB69002B70D1184B1B6803F40073CD
:10100C00002B05D07B689B69002B01D101231AE2D0
:10101C007B681A6A114B5B6803F460439A4221D9CE
:10102C007B681B6A184600F063FC0346002B01D05A
:10103C00012308E20949094B5B6823F460427B6891
:10104C001B6A13434B600549044B5B6823F07F42DA
:10105C007B68DB691B0613434B6020E000380240C1
:10106C0000004742A449A44B5B6823F460427B68B0
:10107C001B6A13434B60A0499F4B5B6823F07F4274
:10108C007B68DB691B0613434B607B681B6A184645
:10109C0000F02EFC0346002B01D00123D3E17B682A
:1010AC001B6A5B0B01334FF4004202FA03F3924AC2
:1010BC009268120902F00F0290498A5CD340904A60
:1010CC001360904B1B681846FFF70AFB0346FB7333
:1010DC00FB7B002B45D0FB7BB5E17B689B69002B30
:1010EC0029D0894B01221A60FFF7C6FB386108E052
:1010FC00FFF7C2FB02463B69D31A022B01D903232B
:10110C00A1E17D4B1B6803F40073002BF0D07A49EE
:10111C00794B5B6823F460427B681B6A13434B601A
:10112C007549754B5B6823F07F427B68DB691B0656
:10113C0013434B6015E0744B00221A60FFF79CFBC5
:10114C00386108E0FFF798FB02463B69D31A022B83
:10115C0001D9032377E1684B1B6803F40073002B60
:10116C00F0D17B681B6803F00803002B30D07B6840
:10117C005B69002B16D0654B01221A60FFF77CFBD4
:10118C00386108E0FFF778FB02463B69D31A022B63
:10119C0001D9032357E1584B5B6B03F00203002B7F
:1011AC00F0D015E0594B00221A60FFF765FB38614F
:1011BC0008E0FFF761FB02463B69D31A022B01D909
:1011CC00032340E14C4B5B6B03F00203002BF0D18B
:1011DC007B681B6803F00403002B00F0B580002330
:1011EC00FB77454B5B6A03F08053002B0DD1424AD1
:1011FC00414B5B6A43F0805353623F4B5B6A03F095
:10120C008053BB60BB680123FB77414B1B6803F425
:10121C008073002B18D13E4A3D4B1B6843F48073FE
:10122C001360FFF729FB386108E0FFF725FB024646
:10123C003B69D31A642B01D9032304E1344B1B689B
:10124C0003F48073002BF0D07B689B68012B06D1D4
:10125C00294A294B5B6B43F4807353632DE07B6805
:10126C009B68002B0CD1244A234B5B6B23F48073BB
:10127C005363214A204B5B6B23F4806353631CE064
:10128C007B689B68052B0CD11B4A1B4B5B6B43F497
:10129C0080635363184A184B5B6B43F4807353633E
:1012AC000BE0154A144B5B6B23F480735363124AA7
:1012BC00114B5B6B23F4806353637B689B68002B3F
:1012CC0015D0FFF7D9FA38610AE0FFF7D5FA0246D4
:1012DC003B69D31A41F28832934201D90323B2E01D
:1012EC00054B5B6B03F40073002BEED023E0FFF790
:1012FC00C3FA386119E000BF00380240981E00089C
:10130C0000000020040000202000474280064742D5
:10131C0000700040FFF7B0FA02463B69D31A41F265
:10132C008832934201D903238DE0494B5B6B03F464
:10133C000073002BEED1FB7F012B05D1444A444BAB
:10134C005B6A23F0805353627B685B6A002B79D015
:10135C00BB690C2B56D07B685B6A022B3BD13D4B97
:10136C0000221A60FFF788FA386108E0FFF784FA68
:10137C0002463B69D31A022B01D9032363E0344B99
:10138C001B6803F00073002BF0D13148304B9B6885
:10139C0023F47D027B68996A7B68DB6A19437B685E
:1013AC001B6B0B43134383602A4B01221A60FFF71C
:1013BC0063FA386108E0FFF75FFA02463B69D31A1B
:1013CC00022B01D903233EE0214B1B6803F0007371
:1013DC00002BF0D036E01F4B00221A60FFF74CFABE
:1013EC00386108E0FFF748FA02463B69D31A022B32
:1013FC0001D9032327E0164B1B6803F00073002B65
:10140C00F0D11FE07B685B6A012B01D101231AE04C
:10141C000F4B9B687B617B6903F480327B689B6A12
:10142C009A420DD17B6903F470127B68DB6A9A4295
:10143C0006D17B6903F440027B681B6B9A4201D096
:10144C00012300E0002318462037BD4680BD00BFB5
:10145C00003802406000474280B584B000AF78602D
:10146C0039607B68002B01D101231AE18F4B1B687B
:10147C0003F001023B689A4219D23B68012B05D15B
:10148C008A4A8A4B1B6843F0040313608749874BD5
:10149C001B6823F001023B6813430B60834B1B68F2
:1014AC0003F001023B689A4201D00123F9E07B680A
:1014BC001B6803F00203002B08D07D497C4B9B6812
:1014CC0023F0F0027B689B6813438B607B681B687E
:1014DC0003F00103002B00F08E807B685B68022B0D
:1014EC0007D1734B1B6803F40033002B21D101236C
:1014FC00D7E07B685B68032B07D16D4B1B6803F04F
:10150C000073002B15D10123CBE07B685B68012BAA
:10151C0007D1674B1B6803F00203002B09D1012391
:10152C00BFE0634B1B6803F40073002B01D1012354
:10153C00B7E05F495E4B9B6823F003027B685B68F6
:10154C0013438B60FFF798F9F8607B685B68022B9C
:10155C0012D10AE0FFF790F90246FB68D31A41F268
:10156C008832934201D903239BE0514B9B6803F0D3
:10157C000C03082BEED13EE07B685B68032B12D189
:10158C000AE0FFF779F90246FB68D31A41F2883278
:10159C00934201D9032384E0454B9B6803F00C0371
:1015AC000C2BEED127E07B685B68012B1DD10AE088
:1015BC00FFF762F90246FB68D31A41F28832934274
:1015CC0001D903236DE03A4B9B6803F00C03042B09
:1015DC00EED110E0FFF750F90246FB68D31A41F246
:1015EC008832934201D903235BE0314B9B6803F0B3
:1015FC000C03002BEED12D4B1B6803F001023B6852
:10160C009A4219D93B68012B05D1284A274B1B68F4
:10161C0043F0040313602549244B1B6823F001029B
:10162C003B6813430B60214B1B6803F001023B68C2
:10163C009A4201D0012334E07B681B6803F0040359
:10164C00002B08D01A491A4B9B6823F4E0627B6884
:10165C00DB6813438B607B681B6803F00803002B6B
:10166C0009D01349124B9B6823F460527B681B69A9
:10167C00DB0013438B6000F023F801460C4B9B6896
:10168C001B0903F00F030B4AD35C21FA03F30A4A3C
:10169C0013600A4B1B681846FFF722F80346FB72CF
:1016AC00FB7A18461037BD4680BD00BF003C024097
:1016BC0000380240981E00080000002004000020A2
:1016CC002DE9F04F91B000AF5E4B9B687B637B6B59
:1016DC0003F00C03082B07D00C2B08D0042B40F084
:1016EC009D80594BBB63A7E0584BBB63A4E07B6B5D
:1016FC009B0C03F00F02564B9B5C3B637B6B9B0D6F
:10170C0003F003030133FB624E4B9B6803F48033FD
:10171C00002B45D03B6B19464FF000020B4614468C
:10172C0060017862786A40EAD36078625B013B6260
:10173C00D7E908345B1A64EB02044FEA841949EACE
:10174C0093694FEA8318B8EB030869EB04094FEA75
:10175C00C903FB61FB6943EA5873FB614FEAC80399
:10176C00BB61D7E9068918EB010849EB02094FEA7E
:10177C0049237B617B6943EAD8537B614FEA482359
:10178C003B61D7E9048940464946FB6A4FF00004A7
:10179C001A462346FEF7ECFC03460C46FB633AE084
:1017AC003B6B19464FF000020B4614466001F86083
:1017BC00F86840EAD360F8605B01BB60D7E902349B
:1017CC005B1A64EB0204A60146EA93669D01ED1ACE
:1017DC0066EB0406F3007B607B6843EA55737B6021
:1017EC00EB003B6097E860006D1846EB02064FEA91
:1017FC00862B4BEA955B4FEA852A55465E46284672
:10180C003146FB6A4FF000041A462346FEF7B0FC43
:10181C0003460C46FB63FB6BBB630DE0094B5B683B
:10182C005B0B03F00703BB62BB6A01334FF400424E
:10183C0002FA03F3BB6300BFBB6B18464437BD46CB
:10184C00BDE8F08F003802400024F40000127A004A
:10185C008C1E000880B400AF024B1B681846BD46B6
:10186C0080BC70470000002080B500AFFFF7F2FF8E
:10187C000146054B9B68DB0A03F00703034AD35C64
:10188C0021FA03F3184680BD00380240A81E000858
:10189C0080B483B000AF786039607B680F221A6027
:1018AC00114B9B6803F003027B685A600E4B9B68DC
:1018BC0003F0F0027B689A600B4B9B6803F4E062C8
:1018CC007B68DA60084B9B68DB0803F4E0627B689A
:1018DC001A61064B1B6803F001023B681A6000BFDB
:1018EC000C37BD4680BC704700380240003C0240BB
:1018FC0080B487B000AF786000233B61294B9B68B4
:10190C0003F0F003002B2CD1264B5B6A03F08053C1
:10191C00002B05D0244B1B6803F4C0537B6116E0ED
:10192C00204A204B5B6A43F0805353621D4B5B6A29
:10193C0003F08053FB60FB681B4B1B6803F4C05324
:10194C007B61184A174B5B6A23F0805353627B69A7
:10195C00B3F5C05F05D17B68B3F5404F01D10123CE
:10196C003B613B69012B05D1104A104B1B6843F0BE
:10197C00040313600D490D4B1B6823F001023B69F6
:10198C0013430B60094B1B6803F001023B699A423D
:10199C0001D0012300E0002318461C37BD4680BC53
:1019AC00704700BF0038024000700040003C02400D
:1019BC0080B582B000AF78607B68002B01D1012329
:1019CC0031E07B6893F83930DBB2002B06D17B68B1
:1019DC00002283F83820786800F029F87B6802220E
:1019EC0083F839207B681A687B68043319461046E3
:1019FC0000F078F97B68012283F83E207B68012295
:101A0C0083F83A207B68012283F83B207B68012213
:101A1C0083F83C207B68012283F83D207B680122FF
:101A2C0083F83920002318460837BD4680BD80B4A2
:101A3C0083B000AF786000BF0C37BD4680BC7047E8
:101A4C0080B485B000AF78607B6893F83930DBB236
:101A5C00012B01D001233AE07B68022283F8392064
:101A6C007B681B687A681268D26842F00102DA60FF
:101A7C007B681B68B3F1804F0ED07B681B68164ADD
:101A8C00934209D07B681B68144A934204D07B684C
:101A9C001B68134A934211D17B681B689B6803F047
:101AAC000703FB60FB68062B10D07B681B687A6809
:101ABC001268126842F001021A6007E07B681B682A
:101ACC007A681268126842F001021A600023184604
:101ADC001437BD4680BC704700040040000800402D
:101AEC000008014080B582B000AF78607B681B684D
:101AFC001B6903F00203022B22D17B681B68DB6895
:101B0C0003F00203022B1BD17B681B686FF00202EF
:101B1C001A617B6801221A767B681B689B6903F04B
:101B2C000303002B03D0786800F0C1F805E0786857
:101B3C0000F0B4F8786800F0C3F87B6800221A76DD
:101B4C007B681B681B6903F00403042B22D17B68A0
:101B5C001B68DB6803F00403042B1BD17B681B6838
:101B6C006FF004021A617B6802221A767B681B688C
:101B7C009B6903F44073002B03D0786800F097F84E
:101B8C0005E0786800F08AF8786800F099F87B68CE
:101B9C0000221A767B681B681B6903F00803082B6C
:101BAC0022D17B681B68DB6803F00803082B1BD170
:101BBC007B681B686FF008021A617B6804221A7636
:101BCC007B681B68DB6903F00303002B03D0786888
:101BDC0000F06DF805E0786800F060F8786800F0C7
:101BEC006FF87B6800221A767B681B681B6903F010
:101BFC001003102B22D17B681B68DB6803F01003E9
:101C0C00102B1BD17B681B686FF010021A617B686C
:101C1C0008221A767B681B68DB6903F44073002B7F
:101C2C0003D0786800F043F805E0786800F036F8E7
:101C3C00786800F045F87B6800221A767B681B6890
:101C4C001B6903F00103012B0ED17B681B68DB6859
:101C5C0003F00103012B07D17B681B686FF00102B5
:101C6C001A617868FEF7F6FC7B681B681B6903F049
:101C7C004003402B0ED17B681B68DB6803F04003EC
:101C8C00402B07D17B681B686FF040021A617868A3
:101C9C0000F01FF800BF0837BD4680BD80B483B08C
:101CAC0000AF786000BF0C37BD4680BC704780B475
:101CBC0083B000AF786000BF0C37BD4680BC704766
:101CCC0080B483B000AF786000BF0C37BD4680BCD9
:101CDC00704780B483B000AF786000BF0C37BD464E
:101CEC0080BC704780B485B000AF786039607B6889
:101CFC001B68FB607B68B3F1804F0FD07B682B4A6D
:101D0C0093420BD07B682A4A934207D07B68294ABE
:101D1C00934203D07B68284A934208D1FB6823F096
:101D2C007003FB603B685B68FA681343FB607B687D
:101D3C00B3F1804F17D07B681C4A934213D07B6859
:101D4C001B4A93420FD07B681A4A93420BD07B6894
:101D5C00194A934207D07B68184A934203D07B6898
:101D6C00174A934208D1FB6823F44073FB603B682D
:101D7C00DB68FA681343FB60FB6823F080023B6866
:101D8C001B691343FB607B68FA681A603B689A68AE
:101D9C007B68DA623B681A687B689A627B6801220E
:101DAC005A6100BF1437BD4680BC70470004004028
:101DBC0000080040000C004000080140000C0140ED
:101DCC00001001400C480D490D4A002302E0D45884
:101DDC00C4500433C4188C42F9D30A4A0A4C002369
:101DEC0001E013600432A242FBD3FEF715FD00F0B4
:101DFC000FF8FEF7B1FB7047000000200C0000202C
:101E0C00C01E00080C0000206C000020FEE7000043
:101E1C0070B500250C4E0D4CA41BA410A54209D185
:101E2C0000F022F800250A4E0A4CA41BA410A5426F
:101E3C0005D170BD56F8253098470135EEE756F8B8
:101E4C00253098470135F2E7B81E0008B81E000887
:101E5C00B81E0008BC1E000803460244934200D181
:101E6C00704703F8011BF9E7F8B500BFF8BC08BCD4
:101E7C009E467047F8B500BFF8BC08BC9E4670473C
:101E8C00030406080C1018203000000000000000AD
:101E9C00000000000102030406070809000000000E
:041EAC000102030428
:081EB000FCE2FF7F01000000CD
:041EB80061010008BC
:041EBC003D010008DC
:0C1EC00068FF1F0010000000010000007F
:0400000508001DD101
:00000001FF
